:020000041000EA
:1000000000B5324B212058609868022188439860DF
:10001000D860186158612E4B002199600221596106
:100020000121F02299502B49196001219960352056
:1000300000F044F80222904214D00621196600F024
:1000400034F8196E01211966002018661A6600F04E
:100050002CF8196E196E196E052000F02FF8012189
:100060000842F9D1002199601B49196000215960AB
:100070001A491B48016001219960EB211966A021F2
:10008000196600F012F800219960164914480160C1
:100090000121996001BC002800D000471248134993
:1000A000086003C880F30888084703B5996A0420EC
:1000B0000142FBD001200142F8D103BD02B5186610
:1000C0001866FFF7F2FF186E186E02BD00000240BE
:1000D000000000180000070000035F00212200005C
:1000E000F4000018222000A00001001008ED00E03C
:1000F00000000000000000000000000074B24E7A12
:1001000000200420F7010010C3010010C5010010F9
:10011000C1010010C1010010C1010010C101001097
:10012000C1010010C1010010C1010010C701001081
:10013000C1010010C1010010C9010010CB01001065
:10014000CD010010CD010010CD010010CD01001037
:10015000CD010010CD010010CD010010CD01001027
:10016000CD010010CD010010CD010010CD01001017
:10017000CD010010CD010010CD010010CD01001007
:10018000CD010010CD010010CD010010CD010010F7
:10019000CD010010CD010010CD010010CD010010E7
:1001A000CD010010CD010010CD010010CD010010D7
:1001B000CD010010CD010010CD010010CD010010C7
:1001C00000BE00BE00BE00BE00BE00BEEFF3058054
:1001D000103800BEF2EB887198230010B423001091
:1001E0003402001090A31AE700201F49086006C8D7
:1001F00081F3088810471D48006800282FD10DA4FE
:100200000ECC002902D000F012F8F9E71849194A7B
:10021000002000E001C19142FCD1174988471749ED
:1002200088471749884700BEFDE701C901C29A42C5
:10023000FBD37047B4230010C000002090030020BF
:1002400084260010000004200000042084260010F2
:10025000001004200010042000000000704709482E
:1002600001F06CFD0047000008ED00E0000000D048
:100270009003002078080020B51B001089050010AD
:10028000A91C00105756000006005250ABB3605333
:100290004423001006005250861C03025423001011
:1002A000060052505422A29D6423001005005250B3
:1002B000DE65F46884260010F8B5C0460448054B96
:1002C00010B5834203D0044B002B00D0984710BDDB
:1002D000900300209003002000000000064807491A
:1002E000091A8B10C90FC91810B5491003D0044B57
:1002F000002B00D0984710BD9003002090030020F1
:100300000000000010B5074C2378002B09D1FFF73F
:10031000D5FF054B002B02D0044800E000BF0123AD
:10032000237010BD9006002000000000E82200109D
:10033000054B10B5002B03D00449054800E000BF71
:10034000FFF7CCFF10BDC04600000000940600205F
:10035000E8220010E12110B54902064801F08CF9AD
:100360000221112000F030F90221102000F02CF9B8
:1003700010BDC0460040034010B5132000F03CF90A
:10038000142000F039F9152000F036F9162000F09D
:1003900033F9D024802324061B03A36280235B034C
:1003A000A36280239B03A3628023DB03A3620A2052
:1003B00000F022F9062000F01FF90D2000F01CF9D2
:1003C0000E2000F019F98023DB00A3628023DB01FB
:1003D000A3624023A36280239B01A362002000F05C
:1003E0000BF9012000F008F9022000F005F90320C4
:1003F00000F002F9042000F0FFF80123A3620133AA
:10040000A3620233A3620433A3620833A36210BD64
:1004100000223E4B30B51A70D0231B065B681B03CD
:1004200004D510213A4A53784B405370D0231B0611
:100430005B68DB0204D52021354A53784B4053706A
:10044000D0231B065B689B0204D54021304A5378B9
:100450004B405370D0231B065B685B0205D580239D
:100460002B4A5B4251784B405370D0231B065B688C
:100470005B06DA0F002B2BDA02220821254B1A60CB
:10048000234A53784B405370D0231B065B689B0470
:1004900004D501211E4A53784B405370D0231B06CC
:1004A0005B685B0404D50221194A53784B405370B2
:1004B000D0231B065B685B05DA0F002B17DA0222DC
:1004C0000421154B1A60124A53784B40537030BDCB
:1004D000104B19680029D7D008200D4D0131196043
:1004E0006C78604068703229CEDD1A60CCE70A4B28
:1004F00019680029EBD00420054D013119606C7892
:10050000604068703229E2DD1A60E0E7730800207D
:10051000300800205008002044080020D0231B068B
:100520005B68DB0704D50121164A93784B40937032
:10053000D0231B065B689B0704D50221114A9378E0
:100540004B409370D0231B065B685B0704D50421E6
:100550000C4A93784B409370D0231B065B681B07B3
:1005600004D50821074A93784B409370D0231B068B
:100570005B68DB0604D51021024A93784B409370E8
:100580007047C0463008002010B582B0FFF7F4FE77
:10059000FFF7E0FEFFF73CFFFFF7C0FF2021084B0D
:1005A000084A1B6801A8019302AC93691942FCD167
:1005B000037801301360A042F7D1002002B010BDD3
:1005C0003008002000400340094A8300944640223E
:1005D000634410B51C68C0006240C02414408022EF
:1005E000520113431C60034B9C466044416010BDA4
:1005F00004C00140004001400123D0228340120684
:1006000093629361094A83009446402263441968C7
:10061000C0004A40C021114080225201134319609A
:10062000034B9C46052360444360704704C001406F
:1006300000400140024B18688007C00F7047C04659
:1006400000C0064070B5EFF3108C72B60D4D2B68EC
:10065000002BFCD0BFF35F8F0724CB08C618C05C0B
:1006600001230C40A3401C000440034207D1034374
:100670003370BFF35F8F2C608CF3108870BD100057
:1006800001F016FB2C0100D00021044B044ABFF3FB
:100690005F8F02C39342FAD17047C046000100D079
:1006A000800100D0044A1078431CDBB2172B00D91C
:1006B000102313707047C046D802002001238340E6
:1006C000002904D0034A1360034A13607047034AA9
:1006D0001360FBE780E200E000E100E080E100E081
:1006E000024B10309B688000C058704700ED00E05E
:1006F00070B50D00EFF3108672B60F4A1368002B29
:10070000FCD0BFF35F8F0D4B10309B6884001B59EA
:100710000B4A934203D09D4201D001F0E1FA074B0E
:100720009B681D51BFF35F8FBFF35F8F0022024BA9
:100730001A6086F3108870BD240100D000ED00E03F
:10074000CD010010F0B5DE4657464E464546E0B5B1
:100750000C0083B0EFF3108972B6584A1368002B6F
:10076000FCD0BFF35F8F564B9A68030010339F0095
:10077000D559544A9046954232D0A54243D0524E64
:10078000AA1B2F2A2CD801228240924651464F4A5A
:1007900012681140019151464D4A1160BFF35F8FBD
:1007A000EFF305829346002A33D101232A009A43AE
:1007B00093689C4208D177E04B005B189B00F318CC
:1007C0009968A1422AD01A00062151560029F3DA6D
:1007D000019B002B19D052463E4B1A603B4B1A60CE
:1007E000374B9B68DD51BFF35F8FBFF35F8F0022F4
:1007F000324B1A6089F3108803B0F0BCBB46B24696
:10080000A946A046F0BD1500EAE75246304B1A60F3
:10081000E6E79342C9D001F063FAC6E706215956CC
:10082000002921DB4A005018800034188046A06857
:100830009860E079D871062020569871002824DB52
:10084000A488F01A6405241544440019E024000526
:10085000400D24022043988052181F4B9200B61876
:100860001A781970B271B3E7594600290FD1FF31D8
:1008700091711A49918018490A789A71184A9B1BFC
:100880005B415A43120D0A70A2E71648E3E7164A85
:100890001649D21A083A5002400D01439980144972
:1008A00052080A43DA8093E70621515613000029C3
:1008B000B8DA5A46002AEAD14546DCE7240100D0DE
:1008C00000ED00E0CD010010DC02002000E100E0BE
:1008D00080E100E080E200E07208002001BDFFFF3F
:1008E000AAAA000001BD00001603002000F0FFFFCF
:1008F00000F8FFFF70B5EFF3058101240443EFF327
:10090000108C72B6214A1368002BFCD0BFF35F8FA6
:100910001F4B05001F4AED1A6D416A43120D1E4D13
:100920008900AE6852B27658A6421CD006215956AC
:1009300091421CD012215956914222D01E21595663
:10094000914220D02A2159560324914210D0134BB2
:1009500019781A708171BFF35F8F00220B4B1A60F8
:100960008CF3108870BDAB680D4C5C50EFE7002431
:100970006100091989005B18FF2199710949998063
:10098000E5E70124F4E70224F2E7C046240100D0A1
:10099000DC020020AAAA000000ED00E0720800209E
:1009A000CD01001001BDFFFF054B064A1360064A4A
:1009B000136053609360D360136153619361704718
:1009C0008080808000E400E004E400E0024B9C466C
:1009D00061448900016070474000003410B5040094
:1009E000FFF760FE01002000FFF7F0FFFF232371F7
:1009F000BFF35F8F10BDC04610B50400FFF752FE75
:100A000001002000FFF7E2FFFF23A380BFF35F8F09
:100A100010BDC04683680B4810B5844661446244EB
:100A2000090112019A18591854684B6801209C4218
:100A300001D802D00020C0B210BD12680B689A42E3
:100A4000F9D8F7E7FFFFFF0F0A4B1968EFF31080A3
:100A500072B60A68002AFCD0BFF35F8F1B68BFF331
:100A60005F8F00221A6080F3108840BF00200021B1
:100A70007047C04658080020F8B557464E464546D0
:100A8000DE46E0B599460CAB1C780DAB1B78060032
:100A900090469A460768002C11D1BC7B002C42D0AE
:100AA00065003B682D19033D59194B78BB73002B2A
:100AB00000D1FB7300238B704B700B7004E065005A
:100AC0003B682D19033D5919B2682A4B944642469A
:100AD000E3181B0163441A604A465A600A9A9A60F6
:100AE0000B9ADA6000238B704B700B707B7B9B46FC
:100AF000002B2BD022005946B8687B6898473A688B
:100B0000002816D05B4658465B005B445519033BF2
:100B1000A870D118D35C002B00D06B705B460C70B2
:100B20007B73A34513D0F0BCBB46B246A946A04692
:100B3000F8BD5B465B005B44033BD3189C705119C6
:100B4000525D002A00D05A705B460B707C7342469F
:100B50004B46307D00F02EFB051E06D05346002B81
:100B600003D12100306800F049FD0E9B002BDAD044
:100B70001D70D8E7FFFFFF0FF0B5DE4657464E4623
:100B800045460023E0B58BB00893674B8200D458EC
:100B900000239B46099000F093FA626806000F005C
:100BA000EFF3108572B61368002BFCD0BFF35F8F94
:100BB00023689C465B7B9946002B00D169E0A268C4
:100BC0005A4B90464B441B01984443461A685B6855
:100BD00010001900801BB941002900DC63E009986E
:100BE00000F0E8FA002300229846002306920793BB
:100BF00000239A466368BFF35F8F5A461A6085F3F5
:100C000010885346002B08D10028C4D10BB0F0BC8B
:100C1000BB46B246A946A046F0BD089B4146180215
:100C20004B461843D047626806000F00EFF310856B
:100C300072B61368002BFCD0BFF35F8F002F50DB20
:100C400033003B4302D02369002B61D12368D97B59
:100C5000002907D04A00521819688C464946624458
:100C6000033A51709A7B002A01D14A469A734A4648
:100C7000DA734B46E168013BCA5C0132CA545B46F9
:100C800023616368BFF35F8F5A461A6085F310884B
:100C900081E7002300229846002306920793002351
:100CA00000209A46A6E7002902D1002800D096E746
:100CB0000021604600F020FC43461A685B680692FB
:100CC000079343469B689A464346DB689846E36829
:100CD0004B44013B1B7808931B0203432361002014
:100CE00088E72369002BB1D0069A079B921BBB4172
:100CF000002B15DB594604910121039149460291CD
:100D000041460191514620000091FFF7B5FEB6E73C
:100D100000F0D6F932003B0012184B41002BE9DA03
:100D20000122034B5242E5E734080020FFFFFF0F8A
:100D3000FFFFFF7F10B5144C6368002B04D00A211D
:100D40001248FFF743FE10BD2300114A102120680E
:100D500000F0ECFA032000F0A7F9032000F094FA69
:100D600003200C4900F0E0F9FFF79CFC0A4B9C467D
:100D700003232375D0231B061B6860446375074B50
:100D800080006060DC60DAE724030020580800205F
:100D9000150A0010790B00104000003434080020C0
:100DA000F0B54E464546DE465746E0B585B0019360
:100DB00010AB1B78060003930023994698460092D7
:100DC0007268EFF3108B72B61368002BFCD0BFF380
:100DD0005F8F3568AC7B002C3DD067002B683F19D6
:100DE000033FDB195A78AA73002A00D1EA73B1686D
:100DF000474A8C4600980199A2181201624410607B
:100E000051600E9991600F99D16042469A705A7064
:100E10001A706B7B9A46002B67D022001900A868D5
:100E20006B6898472A68002852D0534650465B00AA
:100E30005344D719033BB870D118D35C002B00D0B2
:100E40007B7053460C706B7354454FD0F3681B197D
:100E5000013B187800E000207368BFF35F8F4246C3
:100E60001A608BF31088002C4FD04B46002B08D112
:100E70000002204305B0F0BCBB46B246A946A046DE
:100E8000F0BD039B002B3ED00E9B00200F9998478E
:100E9000030004000D000B4335D000290ADA009A44
:100EA000019B121BAB4100920193002B0ADB039BB9
:100EB000994685E700F004F924184D410094019506
:100EC000002DF4DA0123134C5B4200930194EEE70A
:100ED00053465B005344033BD3189C70D119D25D39
:100EE000002A00D05A7053460B706C73307D009A04
:100EF000019B00F05FF981460028A7D021003068EF
:100F000000F07CFBA2E70020B4E701204042B1E7FB
:100F1000FFFFFF0FFFFFFF7FF0B5EFF30583CE4626
:100F2000474680B505000C0085B0002B12D02C4A36
:100F30000020536A9C4203D8926A0130AA4204D32B
:100F400005B0C0BCB946B046F0BDE01A421E9041A3
:100F5000C0B2F5E7234E02930193234B02000093A6
:100F600030000B00FFF71CFF031EE0DD20BF71689F
:100F7000EFF3108772B60A68002AFCD0BFF35F8FC8
:100F8000DAB294463068427B62451DD0FF221A4097
:100F900051008946016891448846494641440339D5
:100FA0008978002913D0F1681B0A88464244013A27
:100FB0001278DBB29A420FD07368BFF35F8F0022C2
:100FC0001A6087F31088B2E7FF221A40EBE7326914
:100FD0009342F1D13161EFE7614600F00FFBEBE79F
:100FE0000040054024030020490A0010F0B5EFF34B
:100FF0000582D6464F4646461000C0B51038EFF37E
:10100000108872B6214C2368002BFCD0BFF35F8F91
:101010000123190081401E4D1F006963AA461D4D22
:1010200029601D4D2E78AC463500C5402F402B421F
:1010300009D1BFF35F8F276088F31088E0BCBA4600
:10104000B146A846F0BD5346144D5F6A83005D5912
:10105000AF420ED3124A8E439B5862461670BFF3BE
:101060005F8F0022226088F31088002BE6D098471B
:10107000E4E70C4B92009C46624413681360BFF394
:101080005F8F0023236088F31088D7E7280100D002
:10109000004005403C700540740800205C080020BA
:1010A000AC060020D03F054010B50100024A0348BD
:1010B000FFF7C8FA10BDC046E822001071080020F2
:1010C000034B596A0A00986A596A8A42FAD17047F2
:1010D0000040054070B504000D00124A536A190023
:1010E000966A536A8B42FAD13000190024184D4198
:1010F000AB4211D80ED02B000A494A6A9A42FCD35F
:1011000007D1084A02E0516A994202D1916AA1428C
:10111000F9D370BDA642EED9012301246442E5173C
:101120005B42E9E70040054070B504000D00EFF3B5
:10113000108672B61A4A1368002BFCD0BFF35F8F7B
:10114000002D1BD02000FFF7CBFA164981420AD0B0
:101150002000FFF7CDFA01212000FFF7AFFA0123AD
:10116000A340114A1360114BA400E550BFF35F8FF9
:1011700000220B4B1A6086F3108870BD0B4BA20047
:10118000D5500122A2400A4920000B7893430B70EE
:101190000449FFF7D7FA00212000FFF78FFAE5E7AF
:1011A000280100D0ED0F001038600540AC0600208B
:1011B00074080020F0B54F46D6464646C0B5070035
:1011C0002C4C616A0D00A66A616AA942FAD18B4271
:1011D00008D805D00120E0BCBA46B146A846F0BD0B
:1011E000B242F7D9EFF3108A72B62348016800299A
:1011F000FCD0BFF35F8F0125BD4020491D4C8846C0
:10120000097889462943C9B28C4641466046087030
:10121000391D1B48890065630A51B9000B50216ACA
:101220000020294219D0616A0800A66A616A8142D9
:10123000FAD18B4219D801D1B24216D8CC4516D07A
:101240000C4B1F201D625D6301230740BB400D4A0C
:101250001E38136043464A461A70BFF35F8F002260
:10126000054B1A608AF31088B5E70020F5E70120E6
:10127000F3E7C04600400540280100D07408002074
:101280005C08002080E200E0EFF3108C72B60A499F
:101290000B68002BFCD0BFF35F8F01238340074A0C
:1012A0000748136202789A430270BFF35F8F0023EE
:1012B0000B608CF310887047280100D00040054077
:1012C0007408002070B5050014001600002915D020
:1012D0000C00002A12D080686B68984729680028A3
:1012E0000ED073009B196200033B1219CB18033A0E
:1012F0009C7088188A5C002A15D10670200070BD89
:1013000063001B197200033B9219CB18033A9E70BD
:1013100088188A5C002A02D104703400EEE75A7003
:1013200004703400EAE75A700670E7E730B583606E
:101330000023CCB243730133047342608373C473DC
:101340000D000068012C06D9421C0133DBB213707A
:1013500003329C42F9D1FF2129404B005918002348
:1013600040180338437030BDF8B5CE4647460600F6
:101370000C0080B5002907D04D0003686D18033DAF
:101380005A195778002F04D12000C0BCB946B04686
:10139000F8BD7900C919033988464344597889460C
:1013A00000215970517073683A0021008068984795
:1013B0003368002814D042469A18947059195B5D1E
:1013C000002B00D053700F70270049463000FFF704
:1013D000CBFF390002003000FFF774FF0400D3E7B1
:1013E000424641465D19AF709A185B5C002B00D0F5
:1013F0006B701470E9E7C046F0B557464546DE46C7
:101400004E46E0B50D006B0001685B19DF1E04005D
:10141000C85D83B00192CA19002850D043001B1840
:10142000033BCB185E78B446002E1AD1019E002EE5
:1014300042D0E67B002E04D073009B19CB18033BEF
:101440005D70A37B002B00D1A573E57300282FD11D
:101450000023537003B0F0BCBB46B246A946A04679
:10146000F0BD72006244033A89184A78904600221F
:101470004A7091465A70010032002000FFF722FFA7
:1014800043468246002B07D05B0021684344033B60
:10149000CB185A78002A16D1424651462000FFF751
:1014A00011FF2168019BCA19002BC2D10028CFD09F
:1014B00043001B18033BCB1800219970C8E7019B20
:1014C000002BB6D1C4E750008018033809184878BB
:1014D000834648464870587041462000FFF7F2FEA8
:1014E000594680462000FFF73FFF4146020020009A
:1014F000FFF7E8FE8046CFE7F0B557464546DE46A3
:101500004E46E0B583B00191457B04006B00006856
:101510005B19DF1EC15DC219002952D04B005B1858
:10152000033BC3185E78B446002E1CD1019E002EEA
:1015300044D0E67B002E04D073009B19C318033BF4
:101540005D70A37B002B00D1A573E573002931D119
:10155000002328005370617303B0F0BCBB46B24651
:10156000A946A046F0BD72006244033A8018427852
:1015700090460022427091465A7020003200FFF7D8
:10158000A1FE43468246002B07D05B0021684344FE
:10159000033BCB185A78002A17D142465146200007
:1015A000FFF790FE019B01002068C219002BC0D1FB
:1015B0000029CDD04B005B18033BC3180020987066
:1015C000C6E7019B002BB4D1C2E750008018033856
:1015D00009184878834648464870587041462000AC
:1015E000FFF770FE594680462000FFF7BDFE4146DA
:1015F00002002000FFF766FE8046CEE770B50400CB
:1016000000292CD0437B8B422ED00568480040181F
:10161000033828188278002A21D053009B18033BF6
:10162000EA5CEE188A4202D11BE0002A08D053007F
:101630009B18033BEB185A788A42F6D142785A70CD
:1016400000230122837043702000FFF7D5FE617BE9
:1016500002002000FFF736FE6073012000E000204A
:1016600070BD43783370EBE701221900FFF7C4FE29
:1016700060730120F4E7C046F8B5CE464746040043
:1016800080B506200E0000F023FA051E51D0524B03
:101690005249E21853425A418023DB039C4692058B
:1016A0004F4B62441A604F4B1A6010008B6898438E
:1016B000FBD1494B8021E3185A4253414A4A5B000F
:1016C00049009952062000F003FA3100C00000F0F2
:1016D00067FBC30932D14022012190466162A362B7
:1016E000256BEB0736D427008026E36A00232C37CE
:1016F00076013E4333600620256300F0E9F9414658
:10170000800000F04DFB236B05009846DB073BD4BF
:101710006022E36A5A406E231340336043462363DA
:10172000802310229B013B431A60304B2363032329
:10173000A3642800C0BCB946B046F8BD2C4A934209
:101740003FD900232B492C4A6162A362256B904646
:10175000EB07C8D52200C02330329B011343234A34
:1017600006201A60666AA26AB601B61800F0B0F9DF
:10177000224900F015FBB6020100300000F010FB1A
:101780000021FFF7A7FCAEE72200C02330329B0107
:101790001343164A06201A60636AA26A9B0199469F
:1017A000914400F095F94B4614499B02994600F08C
:1017B000F7FA0100484600F0F3FA0021FFF78AFC2F
:1017C000A6E77F22990188461040013040081900A1
:1017D0008044030082E7C0460080FCBF00C0004098
:1017E00000E0004000F000406C0800200103000011
:1017F000FEFF0000FFFF0000C0FF3F004E0E000094
:1018000030B50C2083B000F0B9F9FEF713FF0028C3
:101810000ED0994B994A1A605A609A60DA601A6140
:101820005A619A61DA611A62954A5A6203B030BD10
:10183000944CA06700F0AAF90122934B1A60636CE4
:10184000012BFCD10322914B1A608E4A936B012B22
:10185000FCD1013301218E4A8E480093043300F0FD
:101860003DF905238C4A009301218C4800F036F99C
:101870008B4B5A68FF2A02D8802252005A6080227D
:101880007D4C824B21691201854D1A60002907D0D9
:10189000606900F085FA431C5800C0180338FDD277
:1018A000E0217F4B02201A681140802252012A4316
:1018B00011601968484003210140116004219A68B1
:1018C0001142FCD08022802192012A43090111603B
:1018D000802252005A60734B2361734B5968FF2971
:1018E00000D85A600321684A6F4B116002399A6828
:1018F0001142FCD0E0201A681040802252011A43A5
:1019000010601868484003210140022011606649B8
:101910008A681042FCD08022920113438022120177
:101920001A608022614B52004A606361604B5968C3
:10193000FF2900D85A6080225E4BE16912015C4D9C
:101940001A60002907D0606900F02AFA431C580089
:10195000C0180338FDD2E02255490B681A40802395
:101960005B012B431A60802380229B012B431201D1
:101970001A608022414B52004A60E3614E4B596825
:10198000FF2900D85A6080224C4B216A12014A4D2F
:101990001A60002907D0606900F002FA431C580061
:1019A000C0180338FDD2E02243490B681A40802357
:1019B0005B012B431A60802380229B012B43120181
:1019C0001A60802380225B004B602C4BD202236282
:1019D0003B4B5968914200D25A608022394B616A70
:1019E0001201374D1A60002907D0606900F0D8F95C
:1019F000431C5800C0180338FDD2E02230490B6860
:101A00001A4080235B012B431A60802380229B01B4
:101A10002B4312011A608023DB024B60184B636278
:101A2000294B5A68FF2A02D8802252005A6080222D
:101A3000264BA1691201244D1A60002907D0606964
:101A400000F0AEF9431C5800C0180338FDD2E02264
:101A50001D490B681A4080235B012B431A608023C9
:101A600080229B012B4312011A6080235B004B6094
:101A70000E4BA361DAE6C046BC070020006CDC0216
:101A80001BB70000008000403CB0004030B0004078
:101A9000002F685900800240008C864700C0024039
:101AA00030800040001BB7003C8000404059730765
:101AB0005480004054B000406080004060B000405E
:101AC0006C8000406CB000404880004048B000404E
:101AD000014B8000C0587047BC070020F8B50400D7
:101AE00021481D0017000E0000F05AF901003800CF
:101AF00000F056F9069B29041B0319432368002BA9
:101B000020DB1A4B1A4DE21853425A4180235B01E5
:101B10009C461203174B62441A60174B1A60170059
:101B2000AB689F43FBD1C022231D92011A4321239E
:101B30002660A06013602368002BFCDA0823E160B4
:101B40001360F8BD3F2322681340B342D9D1A36884
:101B50001B051B0D8342D4D1EE22E368D202134051
:101B60008B42CED1EDE7C046001BB7000040FDBF61
:101B700000C0004000E0004000F000408023024A26
:101B80009B000343D362704700800540AA23064AA6
:101B90001B0113602F230549D360054B196053685F
:101BA000002BFCDA7047C0460040024000B0FA004B
:101BB000006002402C4B2D4A70B51A602C4A2D4B08
:101BC0002D491A6014008B689C43FBD12B4D2C4E81
:101BD000B54208D2013E761BB60808CD98472300CF
:101BE0000134B342F9D1FFF70BFE264A214B1A60AC
:101BF000214A9368DB43DB01DD09002BF9D1402248
:101C0000214B224C224E9A675A671A67DA66B44211
:101C100008D223682000002B20D00834FEF7ECFE09
:101C2000B442F6D31B4E1C4CC022A168300000F019
:101C300093F9A660FEF728FDFEF7B6FEFFF77AF8E7
:101C4000164C174EB44208D2013E361BB60808CCDB
:101C500098472B0001359E42F9D170BD0834FEF73C
:101C6000BDFEB442D5D3DDE700E00040BFCDFBFEB2
:101C7000FE7F3C0000F0004000C0004078030020E0
:101C800088030020FFFFFF0100F0014070030020E7
:101C9000780300200000002000ED00E08803002011
:101CA0009003002000BEFDE710B5FFF7FBFFC04624
:101CB0000FB400B5084883B000F080FA049B002BF5
:101CC00007D005A91800019100F018F8034800F0AA
:101CD00075FA0120FFF7E6FF0C2300101C2300100B
:101CE00010B50148FFF7E4FF2023001010B50028CD
:101CF00000D110BD00F016FAFBE7C04610B5094A46
:101D00000300146884B0002C08D00122009106481A
:101D1000524203A9A047012004B010BD00F04EFAC2
:101D20000020F9E72C080020ED1C001001480421D8
:101D3000014B1847500300205D1D0010142310B5FF
:101D40000100188804331B88984710BD162310B56E
:101D50000100188802331B88984710BDF8B5474624
:101D6000CE4680B50F1E19D01423994604330400C3
:101D70000025012698464B461888434621681B8853
:101D8000984701C4431E9841013540420640AF4286
:101D9000F1D13000C0BCB946B046F8BD0126F8E725
:101DA000114A936F9B0813D210665166002905D023
:101DB000FFE7FFE7FFE7516F106F704704B500289A
:101DC00001D00020C04300F07FFA002104BDC046CE
:101DD000F0B5146E556E576F166FFFF7E5FF14667A
:101DE000556657671667F0BD000000D0132370B525
:101DF0001D78012D15D010DD1C48FFF7A7FF1C4CE6
:101E000001008022200000F0A7F8022D06D019481A
:101E1000FFF794FF184B186070BD154C174BA36467
:101E2000F5E7164B124C23606360A360E360236107
:101E30006361A361E36123626362A362E36223637C
:101E40006363A363E36323646364A364E36423655C
:101E50006365A365E36523666366A366E36623673C
:101E60006367A367E367A364D1E7C04653440000F8
:101E7000900400204C33000054080020811E001004
:101E800007B5604601880A0A0230DF2AFAD1C9B2D2
:101E9000820804D3028840880004104300E00068F0
:101EA000014A5050039007BD90040020132310B541
:101EB00012481C78FFF74AFF0100012C0AD003DD0D
:101EC00080220F4800F048F80E48FFF737FF0E4B0E
:101ED000186010BD0A4C5422200000F03DF80B4B56
:101EE0006365A365E36523666366A366E3662367AC
:101EF0006367A367E3672362E361E5E75346000096
:101F0000900500204C33000054080020111F0010E1
:101F100007B5604601880A0A0230DF2AFAD1C9B241
:101F2000820804D3028840880004104300E000685F
:101F3000014A5050039007BD90050020014804213C
:101F4000014B1847600300205D1D0010014B1B680A
:101F50001847000060030020014B5B681847000031
:101F600060030020030010B5080011001B689847AB
:101F700010BDC046F0B546464F46D646C0B5437D77
:101F800080460E001700002B46D0002A3FDD4B1E76
:101F90009946244B0125002400209A460DE04B462B
:101FA0001B5D0D3B5A425341325DDBB20A2A0BD016
:101FB0002B00013401359F421ADD002CEFD143463E
:101FC000325D1B7D0A2AF3D1002BF1D1A04204DA45
:101FD0004346211A1B6830189847434650461B68F1
:101FE00002219847013428002B0001359F42E4DC90
:101FF000874204DD4346391A1B6830189847F619A2
:10200000013E33780D3B5A42534142461375E0BCC2
:10201000BA46B146A846F0BD0368110030009847A3
:10202000F5E7C04694230010F0B5DE4657464E460D
:102030004546E0B585B017001C0006000D00FFF70F
:102040003FF80023304A12184B41002B58DB2F4930
:1020500008008A4600F040F901906B1C03D1300063
:1020600000F0F2F80500002C25D1294B9846294BA9
:102070001C68002C15D0002F20D1274F02E02469C6
:10208000002C0ED02368002BF9D03B68002B01D028
:10209000A342F4D120002A003100C0472469002C5B
:1020A000F0D1019B002B27D105B0F0BCBB46B24656
:1020B000A946A046F0BD194B9846D8E7164B99465D
:1020C00002ABDF1D0A239B4602E02469002CE8D006
:1020D0002368002BF9D04B461B68002B01D0A3428C
:1020E000F3D12A0031002000C0475B4601223900AD
:1020F00020003B70C047E8E7504600F0DDF8D3E72A
:102100000122074B5242A2E740420F007003002019
:10211000751F00102408002028080020651F0010EB
:10212000FFFFFF7FF0B5CE46474680B583B06B46D4
:102130000600DD1D2870FEF7C3FF00231A4A12189F
:102140004B41002B2BDB19490800884600F0C4F8EE
:10215000174B81461C68002C14D0164F02E02469EE
:10216000002C0FD02368002BF9D03B68002B01D046
:10217000A342F4D1200001222900FFF7FBFE2469CD
:10218000002CEFD14B46002B05D1300003B0C0BC72
:10219000B946B046F0BD404600F08EF8F5E70122A2
:1021A000054B5242CFE7C04640420F00700300206B
:1021B0002408002028080020FFFFFF7F70B50400DE
:1021C00000F042F800230100050001222000FFF783
:1021D0002BFF084B1C68002C06D06368002B05D031
:1021E00098472469002CF8D1280070BD2469002C80
:1021F000F3D1F9E72408002010B5024800F004F8F4
:1022000010BDC0464808002030B5002589B0040044
:102210000922002101A80095FFF798FE092200215C
:1022200005A80495FFF792FE4B236A466846137093
:1022300004A90D2200F038F8152108222000694475
:10224000FFF78AFE09B030BD10B583070AD003003E
:10225000032102E001330B4205D01A78002AF9D19C
:10226000181A10BD030019680C4A0D4C8A188A43CD
:1022700022420FD15968094A04338A188A432242FC
:1022800008D15968054A04338A188A432242F1D09A
:1022900000E001331A78002AFBD1E1E7FFFEFEFEE1
:1022A00080808080F8B5C04601B40248844601BCF5
:1022B000604700BFFD01002001B40248844601BC14
:1022C000604700BF5D01002001B40248844601BCA4
:1022D000604700BFC102002001B40248844601BC2F
:0822E000604700BFC1000020AF
:1022E800486172647761726520616C61726D202546
:1022F8006420616C726561647920636C61696D65E5
:10230800640000000A2A2A2A2050414E4943202A04
:102318002A2A0A000A000000486172642061737367
:102328006572740052656C6561736500626F6F74E5
:10233800325F77323571303830000000312E352E5B
:10234800310000007069636F000000007069636FFE
:102358005F73776974636865730000004A756E205F
:10236800323420323032340006005250BBFF3CB6C3
:102378004C23001006005250E182887F342300105D
:1023880006005250D3F075422C2300100D0A0000AD
:10239800AC020010A002001094020010702300107C
:0C23A800880200107C2300108823001025
:1023B400F0B5C646150000B504001E000268EFF330
:1023C400108172B61368002BFCD0BFF35F8F042317
:1023D400E356002B2DDB2268BFF35F8F00201060D3
:1023E40081F31088D0221206127852B290469A4293
:1023F40003D1002080BCB846F0BD00270BE0236861
:10240400BFF35F8F1F6081F310882800310000F054
:10241400D3F80028EDD12268EFF3108172B6136867
:10242400002BFCD0BFF35F8F23797F2BE7D9434682
:1024340002E0D0231B061B6823712368BFF35F8F60
:1024440000221A6081F310880120D3E70268EFF3B9
:10245400108172B61368002BFCD0BFF35F8FFF238B
:1024640003710368BFF35F8F00221A6081F3108841
:1024740040BF7047084810B50378002B0AD1802369
:102484000649074A5B051C68CC5004339342FAD1D1
:102494000123037010BDC04670080020BC06001064
:1024A4000001001010B5024B0133984710BDC0461F
:1024B400BC060020034B1A68C0239B009343024AC6
:1024C400136070470C8001400C900140054B1A6862
:1024D40080239B005340C02292001340024A1360A1
:1024E4007047C0460C8001400C9001401423F0B5A5
:1024F400D6464F4646469A46814618880433C0B5A8
:1025040098460E001B882749140098475346070035
:102514001888434624491B88984753460500188861
:10252400434622491B8898478046FFF7A3FFB847D4
:10253400A847FFF7CBFF002C1BD0C021220008279F
:10254400022049053D008B6A1D4018420BD0002C27
:1025540009D0131B0D2B1FD84B461B78013C0B666F
:1025640001239C46E1442300002D0CD11343002B8E
:10257400E8D1FFF79FFFC047FFF794FFE0BCBA46DE
:10258400B146A846F0BD002AF1D00B6E013A337073
:10259400130001362343EAE7002DD3D0002AD1D01B
:1025A400F3E7C04649460000455800004643000092
:1025B4007047C0460000000001B40248844601BCD4
:1025C400604700BF190F0010100000000000000059
:1025D40000000100000000000000000000000200F4
:1025E40000000000000000000000030000000000E4
:1025F400000000000000FF000000000001B5486872
:1026040001318E460047704609380149884701BDAB
:10261400F50800103C030020000000009003002097
:10262400E40700200000000000000000F407002080
:102634000000000000000000100000000000000086
:10264400503300004C330000543300005233000078
:102654004D5300004D430000533400004334000048
:1026640000000000000000003D1F00102D1D0010A0
:10267400ED1D0010AD1E001031030010F9210010F3
:04000005100001E9FD
:00000001FF
